{
  "_format": "hh-sol-artifact-1",
  "contractName": "Contract",
  "sourceName": "contracts/Contract.sol",
  "abi": [
    {
      "inputs": [],
      "stateMutability": "nonpayable",
      "type": "constructor"
    },
    {
      "anonymous": false,
      "inputs": [
        {
          "indexed": true,
          "internalType": "uint256",
          "name": "challengeId",
          "type": "uint256"
        }
      ],
      "name": "ChallengeAdded",
      "type": "event"
    },
    {
      "anonymous": false,
      "inputs": [
        {
          "indexed": false,
          "internalType": "string",
          "name": "name",
          "type": "string"
        },
        {
          "indexed": false,
          "internalType": "address",
          "name": "courseOwner",
          "type": "address"
        },
        {
          "indexed": false,
          "internalType": "uint256",
          "name": "totalStaked",
          "type": "uint256"
        },
        {
          "indexed": false,
          "internalType": "address",
          "name": "stakedTokenAddress",
          "type": "address"
        },
        {
          "indexed": true,
          "internalType": "uint256",
          "name": "courseId",
          "type": "uint256"
        }
      ],
      "name": "CourseAdded",
      "type": "event"
    },
    {
      "anonymous": false,
      "inputs": [
        {
          "indexed": true,
          "internalType": "uint256",
          "name": "studentId",
          "type": "uint256"
        }
      ],
      "name": "StudentAdded",
      "type": "event"
    },
    {
      "anonymous": false,
      "inputs": [],
      "name": "SubmittedChallenge",
      "type": "event"
    },
    {
      "anonymous": false,
      "inputs": [
        {
          "indexed": false,
          "internalType": "uint256",
          "name": "rewardAmount",
          "type": "uint256"
        }
      ],
      "name": "ValidatedSubmit",
      "type": "event"
    },
    {
      "inputs": [
        {
          "internalType": "address",
          "name": "",
          "type": "address"
        },
        {
          "internalType": "bytes32",
          "name": "",
          "type": "bytes32"
        }
      ],
      "name": "accountBalancesDeposited",
      "outputs": [
        {
          "internalType": "uint256",
          "name": "",
          "type": "uint256"
        }
      ],
      "stateMutability": "view",
      "type": "function"
    },
    {
      "inputs": [
        {
          "internalType": "uint256",
          "name": "courseId",
          "type": "uint256"
        },
        {
          "internalType": "uint256",
          "name": "challengeReward",
          "type": "uint256"
        }
      ],
      "name": "addChallenge",
      "outputs": [],
      "stateMutability": "nonpayable",
      "type": "function"
    },
    {
      "inputs": [
        {
          "internalType": "string",
          "name": "name",
          "type": "string"
        },
        {
          "internalType": "address",
          "name": "ownerAddress",
          "type": "address"
        },
        {
          "internalType": "uint256",
          "name": "stakeAmount",
          "type": "uint256"
        },
        {
          "internalType": "address",
          "name": "tokenAddress",
          "type": "address"
        }
      ],
      "name": "addCourse",
      "outputs": [],
      "stateMutability": "nonpayable",
      "type": "function"
    },
    {
      "inputs": [
        {
          "internalType": "address",
          "name": "myAddress",
          "type": "address"
        }
      ],
      "name": "addProfessor",
      "outputs": [],
      "stateMutability": "nonpayable",
      "type": "function"
    },
    {
      "inputs": [],
      "name": "addStudents",
      "outputs": [],
      "stateMutability": "nonpayable",
      "type": "function"
    },
    {
      "inputs": [
        {
          "internalType": "uint256",
          "name": "",
          "type": "uint256"
        }
      ],
      "name": "allCourses",
      "outputs": [
        {
          "internalType": "string",
          "name": "name",
          "type": "string"
        },
        {
          "internalType": "bool",
          "name": "isActive",
          "type": "bool"
        },
        {
          "internalType": "address",
          "name": "courseOwner",
          "type": "address"
        },
        {
          "internalType": "uint256",
          "name": "totalStaked",
          "type": "uint256"
        },
        {
          "internalType": "address",
          "name": "stakedTokenAddress",
          "type": "address"
        },
        {
          "internalType": "uint256",
          "name": "studentId",
          "type": "uint256"
        },
        {
          "internalType": "uint256",
          "name": "courseId",
          "type": "uint256"
        }
      ],
      "stateMutability": "view",
      "type": "function"
    },
    {
      "inputs": [
        {
          "internalType": "bytes32",
          "name": "symbol",
          "type": "bytes32"
        },
        {
          "internalType": "address",
          "name": "tokenAddress",
          "type": "address"
        }
      ],
      "name": "allowedListToken",
      "outputs": [],
      "stateMutability": "nonpayable",
      "type": "function"
    },
    {
      "inputs": [
        {
          "internalType": "bytes32",
          "name": "",
          "type": "bytes32"
        }
      ],
      "name": "allowedListTokens",
      "outputs": [
        {
          "internalType": "address",
          "name": "",
          "type": "address"
        }
      ],
      "stateMutability": "view",
      "type": "function"
    },
    {
      "inputs": [
        {
          "internalType": "uint256",
          "name": "",
          "type": "uint256"
        }
      ],
      "name": "challengeCount",
      "outputs": [
        {
          "internalType": "uint256",
          "name": "",
          "type": "uint256"
        }
      ],
      "stateMutability": "view",
      "type": "function"
    },
    {
      "inputs": [
        {
          "internalType": "uint256",
          "name": "",
          "type": "uint256"
        }
      ],
      "name": "courses",
      "outputs": [
        {
          "internalType": "string",
          "name": "name",
          "type": "string"
        },
        {
          "internalType": "bool",
          "name": "isActive",
          "type": "bool"
        },
        {
          "internalType": "address",
          "name": "courseOwner",
          "type": "address"
        },
        {
          "internalType": "uint256",
          "name": "totalStaked",
          "type": "uint256"
        },
        {
          "internalType": "address",
          "name": "stakedTokenAddress",
          "type": "address"
        },
        {
          "internalType": "uint256",
          "name": "studentId",
          "type": "uint256"
        },
        {
          "internalType": "uint256",
          "name": "courseId",
          "type": "uint256"
        }
      ],
      "stateMutability": "view",
      "type": "function"
    },
    {
      "inputs": [
        {
          "internalType": "uint256",
          "name": "amount",
          "type": "uint256"
        },
        {
          "internalType": "bytes32",
          "name": "symbol",
          "type": "bytes32"
        }
      ],
      "name": "depositTokens",
      "outputs": [],
      "stateMutability": "nonpayable",
      "type": "function"
    },
    {
      "inputs": [],
      "name": "status",
      "outputs": [
        {
          "internalType": "enum Contract.Status",
          "name": "",
          "type": "uint8"
        }
      ],
      "stateMutability": "view",
      "type": "function"
    },
    {
      "inputs": [
        {
          "internalType": "string",
          "name": "answer",
          "type": "string"
        },
        {
          "internalType": "uint256",
          "name": "courseId",
          "type": "uint256"
        },
        {
          "internalType": "uint256",
          "name": "challengeId",
          "type": "uint256"
        }
      ],
      "name": "submitChallenge",
      "outputs": [],
      "stateMutability": "nonpayable",
      "type": "function"
    },
    {
      "inputs": [
        {
          "internalType": "uint256",
          "name": "challengeId",
          "type": "uint256"
        },
        {
          "internalType": "uint256",
          "name": "courseId",
          "type": "uint256"
        },
        {
          "internalType": "uint256",
          "name": "score",
          "type": "uint256"
        }
      ],
      "name": "validateSubmit",
      "outputs": [],
      "stateMutability": "nonpayable",
      "type": "function"
    },
    {
      "inputs": [
        {
          "internalType": "uint256",
          "name": "amount",
          "type": "uint256"
        },
        {
          "internalType": "bytes32",
          "name": "symbol",
          "type": "bytes32"
        }
      ],
      "name": "withdrawTokens",
      "outputs": [],
      "stateMutability": "nonpayable",
      "type": "function"
    }
  ],
  "bytecode": "0x608060405234801561001057600080fd5b506001600081905550336001806101000a81548173ffffffffffffffffffffffffffffffffffffffff021916908373ffffffffffffffffffffffffffffffffffffffff1602179055506120b4806100686000396000f3fe608060405234801561001057600080fd5b50600436106100f55760003560e01c80638f97994b11610097578063c49cf7f311610066578063c49cf7f314610274578063cb88dc7914610290578063d15b223e146102c6578063f1c12be0146102e2576100f5565b80638f97994b146101ea57806396f979d21461020657806398ea1ee81461023c578063a33f43dd14610258576100f5565b80634268edaa116100d35780634268edaa146101785780636a9968b5146101945780636e3f7284146101c45780637f441f3f146101ce576100f5565b80631879baec146100fa5780631f4225871461012a578063200d2ed21461015a575b600080fd5b610114600480360381019061010f9190611467565b6102fe565b60405161012191906114c0565b60405180910390f35b610144600480360381019061013f9190611507565b610323565b60405161015191906114c0565b60405180910390f35b61016261033b565b60405161016f91906115ab565b60405180910390f35b610192600480360381019061018d91906115c6565b61034e565b005b6101ae60048036038101906101a991906115f3565b6103a9565b6040516101bb919061162f565b60405180910390f35b6101cc6103dc565b005b6101e860048036038101906101e3919061164a565b610529565b005b61020460048036038101906101ff919061168a565b6106a0565b005b610220600480360381019061021b9190611507565b6108b5565b604051610233979695949392919061177e565b60405180910390f35b610256600480360381019061025191906117f4565b6109cc565b005b610272600480360381019061026d9190611834565b610ab0565b005b61028e600480360381019061028991906119bc565b610d81565b005b6102aa60048036038101906102a59190611507565b610e94565b6040516102bd979695949392919061177e565b60405180910390f35b6102e060048036038101906102db919061168a565b610fbb565b005b6102fc60048036038101906102f79190611a2b565b6110e9565b005b600a602052816000526040600020602052806000526040600020600091509150505481565b60056020528060005260406000206000915090505481565b600160009054906101000a900460ff1681565b6001600660008373ffffffffffffffffffffffffffffffffffffffff1673ffffffffffffffffffffffffffffffffffffffff16815260200190815260200160002060006101000a81548160ff02191690831515021790555050565b60096020528060005260406000206000915054906101000a900473ffffffffffffffffffffffffffffffffffffffff1681565b600760003373ffffffffffffffffffffffffffffffffffffffff1673ffffffffffffffffffffffffffffffffffffffff16815260200190815260200160002060009054906101000a900460ff1615610469576040517f08c379a000000000000000000000000000000000000000000000000000000000815260040161046090611afa565b60405180910390fd5b6003600081548092919061047c90611b49565b91905055506001600760003373ffffffffffffffffffffffffffffffffffffffff1673ffffffffffffffffffffffffffffffffffffffff16815260200190815260200160002060006101000a81548160ff021916908315150217905550600354600860006002548152602001908152602001600020600601819055506003547f7b244afbade88f14ffe00252804b1465253195836e50dede3f68c1c7996ba5b760405160405180910390a2565b600660003373ffffffffffffffffffffffffffffffffffffffff1673ffffffffffffffffffffffffffffffffffffffff16815260200190815260200160002060009054906101000a900460ff16156105b6576040517f08c379a00000000000000000000000000000000000000000000000000000000081526004016105ad90611bde565b60405180910390fd5b6005600083815260200190815260200160002060008154809291906105da90611b49565b9190505550600860008381526020019081526020016000206005016000600560008581526020019081526020016000205481526020019081526020016000205080600860008481526020019081526020016000206005016000600560008681526020019081526020016000205481526020019081526020016000206001018190555060056000838152602001908152602001600020547f32cc6aec43c5a2f4a111a0bf80aa8dad43d37928842100c547e94d7a9c7e561460405160405180910390a25050565b600260005414156106e6576040517f08c379a00000000000000000000000000000000000000000000000000000000081526004016106dd90611c4a565b60405180910390fd5b600260008190555081600a60003373ffffffffffffffffffffffffffffffffffffffff1673ffffffffffffffffffffffffffffffffffffffff1681526020019081526020016000206000838152602001908152602001600020541015610781576040517f08c379a000000000000000000000000000000000000000000000000000000000815260040161077890611cb6565b60405180910390fd5b81600a60003373ffffffffffffffffffffffffffffffffffffffff1673ffffffffffffffffffffffffffffffffffffffff168152602001908152602001600020600083815260200190815260200160002060008282546107e19190611cd6565b925050819055506009600082815260200190815260200160002060009054906101000a900473ffffffffffffffffffffffffffffffffffffffff1673ffffffffffffffffffffffffffffffffffffffff1663a9059cbb33846040518363ffffffff1660e01b8152600401610856929190611d0a565b602060405180830381600087803b15801561087057600080fd5b505af1158015610884573d6000803e3d6000fd5b505050506040513d601f19601f820116820180604052508101906108a89190611d5f565b5060016000819055505050565b60086020528060005260406000206000915090508060000180546108d890611dbb565b80601f016020809104026020016040519081016040528092919081815260200182805461090490611dbb565b80156109515780601f1061092657610100808354040283529160200191610951565b820191906000526020600020905b81548152906001019060200180831161093457829003601f168201915b5050505050908060010160009054906101000a900460ff16908060010160019054906101000a900473ffffffffffffffffffffffffffffffffffffffff16908060020154908060030160009054906101000a900473ffffffffffffffffffffffffffffffffffffffff16908060060154908060070154905087565b60018054906101000a900473ffffffffffffffffffffffffffffffffffffffff1673ffffffffffffffffffffffffffffffffffffffff163373ffffffffffffffffffffffffffffffffffffffff1614610a5a576040517f08c379a0000000000000000000000000000000000000000000000000000000008152600401610a5190611e39565b60405180910390fd5b806009600084815260200190815260200160002060006101000a81548173ffffffffffffffffffffffffffffffffffffffff021916908373ffffffffffffffffffffffffffffffffffffffff1602179055505050565b600660003373ffffffffffffffffffffffffffffffffffffffff1673ffffffffffffffffffffffffffffffffffffffff16815260200190815260200160002060009054906101000a900460ff1615610b3d576040517f08c379a0000000000000000000000000000000000000000000000000000000008152600401610b3490611bde565b60405180910390fd5b60016003811115610b5157610b50611534565b5b60086000848152602001908152602001600020600501600085815260200190815260200160002060000160003373ffffffffffffffffffffffffffffffffffffffff1673ffffffffffffffffffffffffffffffffffffffff16815260200190815260200160002060009054906101000a900460ff166003811115610bd857610bd7611534565b5b14610be257600080fd5b600260086000848152602001908152602001600020600501600085815260200190815260200160002060000160003373ffffffffffffffffffffffffffffffffffffffff1673ffffffffffffffffffffffffffffffffffffffff16815260200190815260200160002060006101000a81548160ff02191690836003811115610c6d57610c6c611534565b5b02179055506008600083815260200190815260200160002060050160006005600085815260200190815260200160002054815260200190815260200160002060010154606482610cbd9190611e88565b610cc79190611eb9565b60086000848152602001908152602001600020600501600060056000868152602001908152602001600020548152602001908152602001600020600101819055507f26ccaa5a65c0f3be06570f8e24c51f5c851a51d8a177f0c1cd2263ef60ec0bcd6008600084815260200190815260200160002060050160006005600086815260200190815260200160002054815260200190815260200160002060010154604051610d7491906114c0565b60405180910390a1505050565b600160086000848152602001908152602001600020600501600083815260200190815260200160002060000160003373ffffffffffffffffffffffffffffffffffffffff1673ffffffffffffffffffffffffffffffffffffffff16815260200190815260200160002060006101000a81548160ff02191690836003811115610e0c57610e0b611534565b5b021790555082600860008481526020019081526020016000206005016000600560008681526020019081526020016000205481526020019081526020016000206003019080519060200190610e6292919061131c565b507fc4b32a8b5e485837b7b5f3f686801a57aa5e3dbe268a8a9a8b8295924e09d28b60405160405180910390a1505050565b60048181548110610ea457600080fd5b9060005260206000209060080201600091509050806000018054610ec790611dbb565b80601f0160208091040260200160405190810160405280929190818152602001828054610ef390611dbb565b8015610f405780601f10610f1557610100808354040283529160200191610f40565b820191906000526020600020905b815481529060010190602001808311610f2357829003601f168201915b5050505050908060010160009054906101000a900460ff16908060010160019054906101000a900473ffffffffffffffffffffffffffffffffffffffff16908060020154908060030160009054906101000a900473ffffffffffffffffffffffffffffffffffffffff16908060060154908060070154905087565b81600a60003373ffffffffffffffffffffffffffffffffffffffff1673ffffffffffffffffffffffffffffffffffffffff1681526020019081526020016000206000838152602001908152602001600020600082825461101b9190611f13565b925050819055506009600082815260200190815260200160002060009054906101000a900473ffffffffffffffffffffffffffffffffffffffff1673ffffffffffffffffffffffffffffffffffffffff166323b872dd3330856040518463ffffffff1660e01b815260040161109293929190611f69565b602060405180830381600087803b1580156110ac57600080fd5b505af11580156110c0573d6000803e3d6000fd5b505050506040513d601f19601f820116820180604052508101906110e49190611d5f565b505050565b600660003373ffffffffffffffffffffffffffffffffffffffff1673ffffffffffffffffffffffffffffffffffffffff16815260200190815260200160002060009054906101000a900460ff1615611176576040517f08c379a000000000000000000000000000000000000000000000000000000000815260040161116d90612012565b60405180910390fd5b6002600081548092919061118990611b49565b91905055508360086000600254815260200190815260200160002060000190805190602001906111ba92919061131c565b50600160086000600254815260200190815260200160002060010160006101000a81548160ff0219169083151502179055508260086000600254815260200190815260200160002060010160016101000a81548173ffffffffffffffffffffffffffffffffffffffff021916908373ffffffffffffffffffffffffffffffffffffffff16021790555081600860006002548152602001908152602001600020600201819055508060086000600254815260200190815260200160002060030160006101000a81548173ffffffffffffffffffffffffffffffffffffffff021916908373ffffffffffffffffffffffffffffffffffffffff160217905550600254600860006002548152602001908152602001600020600701819055506002547f81492c82ff72a147087ca6d664f3578619a358629830f78af1a7decebe13b5438585858560405161130e9493929190612032565b60405180910390a250505050565b82805461132890611dbb565b90600052602060002090601f01602090048101928261134a5760008555611391565b82601f1061136357805160ff1916838001178555611391565b82800160010185558215611391579182015b82811115611390578251825591602001919060010190611375565b5b50905061139e91906113a2565b5090565b5b808211156113bb5760008160009055506001016113a3565b5090565b6000604051905090565b600080fd5b600080fd5b600073ffffffffffffffffffffffffffffffffffffffff82169050919050565b60006113fe826113d3565b9050919050565b61140e816113f3565b811461141957600080fd5b50565b60008135905061142b81611405565b92915050565b6000819050919050565b61144481611431565b811461144f57600080fd5b50565b6000813590506114618161143b565b92915050565b6000806040838503121561147e5761147d6113c9565b5b600061148c8582860161141c565b925050602061149d85828601611452565b9150509250929050565b6000819050919050565b6114ba816114a7565b82525050565b60006020820190506114d560008301846114b1565b92915050565b6114e4816114a7565b81146114ef57600080fd5b50565b600081359050611501816114db565b92915050565b60006020828403121561151d5761151c6113c9565b5b600061152b848285016114f2565b91505092915050565b7f4e487b7100000000000000000000000000000000000000000000000000000000600052602160045260246000fd5b6004811061157457611573611534565b5b50565b600081905061158582611563565b919050565b600061159582611577565b9050919050565b6115a58161158a565b82525050565b60006020820190506115c0600083018461159c565b92915050565b6000602082840312156115dc576115db6113c9565b5b60006115ea8482850161141c565b91505092915050565b600060208284031215611609576116086113c9565b5b600061161784828501611452565b91505092915050565b611629816113f3565b82525050565b60006020820190506116446000830184611620565b92915050565b60008060408385031215611661576116606113c9565b5b600061166f858286016114f2565b9250506020611680858286016114f2565b9150509250929050565b600080604083850312156116a1576116a06113c9565b5b60006116af858286016114f2565b92505060206116c085828601611452565b9150509250929050565b600081519050919050565b600082825260208201905092915050565b60005b838110156117045780820151818401526020810190506116e9565b83811115611713576000848401525b50505050565b6000601f19601f8301169050919050565b6000611735826116ca565b61173f81856116d5565b935061174f8185602086016116e6565b61175881611719565b840191505092915050565b60008115159050919050565b61177881611763565b82525050565b600060e0820190508181036000830152611798818a61172a565b90506117a7602083018961176f565b6117b46040830188611620565b6117c160608301876114b1565b6117ce6080830186611620565b6117db60a08301856114b1565b6117e860c08301846114b1565b98975050505050505050565b6000806040838503121561180b5761180a6113c9565b5b600061181985828601611452565b925050602061182a8582860161141c565b9150509250929050565b60008060006060848603121561184d5761184c6113c9565b5b600061185b868287016114f2565b935050602061186c868287016114f2565b925050604061187d868287016114f2565b9150509250925092565b600080fd5b600080fd5b7f4e487b7100000000000000000000000000000000000000000000000000000000600052604160045260246000fd5b6118c982611719565b810181811067ffffffffffffffff821117156118e8576118e7611891565b5b80604052505050565b60006118fb6113bf565b905061190782826118c0565b919050565b600067ffffffffffffffff82111561192757611926611891565b5b61193082611719565b9050602081019050919050565b82818337600083830152505050565b600061195f61195a8461190c565b6118f1565b90508281526020810184848401111561197b5761197a61188c565b5b61198684828561193d565b509392505050565b600082601f8301126119a3576119a2611887565b5b81356119b384826020860161194c565b91505092915050565b6000806000606084860312156119d5576119d46113c9565b5b600084013567ffffffffffffffff8111156119f3576119f26113ce565b5b6119ff8682870161198e565b9350506020611a10868287016114f2565b9250506040611a21868287016114f2565b9150509250925092565b60008060008060808587031215611a4557611a446113c9565b5b600085013567ffffffffffffffff811115611a6357611a626113ce565b5b611a6f8782880161198e565b9450506020611a808782880161141c565b9350506040611a91878288016114f2565b9250506060611aa28782880161141c565b91505092959194509250565b7f4164647265737320616c726561647920686173206163636f756e740000000000600082015250565b6000611ae4601b836116d5565b9150611aef82611aae565b602082019050919050565b60006020820190508181036000830152611b1381611ad7565b9050919050565b7f4e487b7100000000000000000000000000000000000000000000000000000000600052601160045260246000fd5b6000611b54826114a7565b91507fffffffffffffffffffffffffffffffffffffffffffffffffffffffffffffffff821415611b8757611b86611b1a565b5b600182019050919050565b7f596f75277265206e6f7420612070726f666573736f7200000000000000000000600082015250565b6000611bc86016836116d5565b9150611bd382611b92565b602082019050919050565b60006020820190508181036000830152611bf781611bbb565b9050919050565b7f5265656e7472616e637947756172643a207265656e7472616e742063616c6c00600082015250565b6000611c34601f836116d5565b9150611c3f82611bfe565b602082019050919050565b60006020820190508181036000830152611c6381611c27565b9050919050565b7f496e737566666963656e742066756e6473000000000000000000000000000000600082015250565b6000611ca06011836116d5565b9150611cab82611c6a565b602082019050919050565b60006020820190508181036000830152611ccf81611c93565b9050919050565b6000611ce1826114a7565b9150611cec836114a7565b925082821015611cff57611cfe611b1a565b5b828203905092915050565b6000604082019050611d1f6000830185611620565b611d2c60208301846114b1565b9392505050565b611d3c81611763565b8114611d4757600080fd5b50565b600081519050611d5981611d33565b92915050565b600060208284031215611d7557611d746113c9565b5b6000611d8384828501611d4a565b91505092915050565b7f4e487b7100000000000000000000000000000000000000000000000000000000600052602260045260246000fd5b60006002820490506001821680611dd357607f821691505b60208210811415611de757611de6611d8c565b5b50919050565b7f546869732066756e6374696f6e206973206e6f74207075626c69630000000000600082015250565b6000611e23601b836116d5565b9150611e2e82611ded565b602082019050919050565b60006020820190508181036000830152611e5281611e16565b9050919050565b7f4e487b7100000000000000000000000000000000000000000000000000000000600052601260045260246000fd5b6000611e93826114a7565b9150611e9e836114a7565b925082611eae57611ead611e59565b5b828204905092915050565b6000611ec4826114a7565b9150611ecf836114a7565b9250817fffffffffffffffffffffffffffffffffffffffffffffffffffffffffffffffff0483118215151615611f0857611f07611b1a565b5b828202905092915050565b6000611f1e826114a7565b9150611f29836114a7565b9250827fffffffffffffffffffffffffffffffffffffffffffffffffffffffffffffffff03821115611f5e57611f5d611b1a565b5b828201905092915050565b6000606082019050611f7e6000830186611620565b611f8b6020830185611620565b611f9860408301846114b1565b949350505050565b7f596f75206861766520746f20626520612050726f666573736f7220746f20637260008201527f65617465206120636f7572736500000000000000000000000000000000000000602082015250565b6000611ffc602d836116d5565b915061200782611fa0565b604082019050919050565b6000602082019050818103600083015261202b81611fef565b9050919050565b6000608082019050818103600083015261204c818761172a565b905061205b6020830186611620565b61206860408301856114b1565b6120756060830184611620565b9594505050505056fea26469706673582212201e9a40bdc8b9fd794474efda100e6cefd9550cc4ee5ae8b21b130e0ffc9880a664736f6c63430008090033",
  "linkReferences": {},
  "deployedLinkReferences": {}
}