{
  "_format": "hh-sol-artifact-1",
  "contractName": "Totem",
  "sourceName": "contracts/Totem.sol",
  "abi": [
    {
      "inputs": [],
      "stateMutability": "nonpayable",
      "type": "constructor"
    },
    {
      "anonymous": false,
      "inputs": [
        {
          "indexed": true,
          "internalType": "uint256",
          "name": "challengeId",
          "type": "uint256"
        },
        {
          "indexed": true,
          "internalType": "uint256",
          "name": "courseId",
          "type": "uint256"
        },
        {
          "indexed": false,
          "internalType": "uint256",
          "name": "challengeReward",
          "type": "uint256"
        }
      ],
      "name": "ChallengeAdded",
      "type": "event"
    },
    {
      "anonymous": false,
      "inputs": [
        {
          "indexed": true,
          "internalType": "uint256",
          "name": "challengeId",
          "type": "uint256"
        },
        {
          "indexed": true,
          "internalType": "uint256",
          "name": "courseId",
          "type": "uint256"
        },
        {
          "indexed": true,
          "internalType": "address",
          "name": "studentAddress",
          "type": "address"
        },
        {
          "indexed": false,
          "internalType": "uint256",
          "name": "reward",
          "type": "uint256"
        }
      ],
      "name": "Claimed",
      "type": "event"
    },
    {
      "anonymous": false,
      "inputs": [
        {
          "indexed": false,
          "internalType": "string",
          "name": "name",
          "type": "string"
        },
        {
          "indexed": true,
          "internalType": "address",
          "name": "courseOwner",
          "type": "address"
        },
        {
          "indexed": false,
          "internalType": "uint256",
          "name": "totalStaked",
          "type": "uint256"
        },
        {
          "indexed": false,
          "internalType": "address",
          "name": "stakedTokenAddress",
          "type": "address"
        },
        {
          "indexed": true,
          "internalType": "uint256",
          "name": "courseId",
          "type": "uint256"
        }
      ],
      "name": "CourseAdded",
      "type": "event"
    },
    {
      "anonymous": false,
      "inputs": [
        {
          "indexed": true,
          "internalType": "uint256",
          "name": "courseId",
          "type": "uint256"
        },
        {
          "indexed": true,
          "internalType": "address",
          "name": "studentAddress",
          "type": "address"
        }
      ],
      "name": "StudentAdded",
      "type": "event"
    },
    {
      "anonymous": false,
      "inputs": [
        {
          "indexed": true,
          "internalType": "uint256",
          "name": "courseId",
          "type": "uint256"
        },
        {
          "indexed": true,
          "internalType": "uint256",
          "name": "challengeId",
          "type": "uint256"
        },
        {
          "indexed": false,
          "internalType": "string",
          "name": "asnwer",
          "type": "string"
        }
      ],
      "name": "SubmittedChallenge",
      "type": "event"
    },
    {
      "anonymous": false,
      "inputs": [
        {
          "indexed": true,
          "internalType": "uint256",
          "name": "challengeId",
          "type": "uint256"
        },
        {
          "indexed": true,
          "internalType": "uint256",
          "name": "courseId",
          "type": "uint256"
        },
        {
          "indexed": false,
          "internalType": "uint256",
          "name": "score",
          "type": "uint256"
        },
        {
          "indexed": false,
          "internalType": "uint256",
          "name": "rewardAmount",
          "type": "uint256"
        },
        {
          "indexed": true,
          "internalType": "address",
          "name": "studentAddress",
          "type": "address"
        }
      ],
      "name": "ValidatedSubmit",
      "type": "event"
    },
    {
      "inputs": [
        {
          "internalType": "uint256",
          "name": "challengeId",
          "type": "uint256"
        },
        {
          "internalType": "uint256",
          "name": "courseId",
          "type": "uint256"
        }
      ],
      "name": "Claim",
      "outputs": [],
      "stateMutability": "nonpayable",
      "type": "function"
    },
    {
      "inputs": [
        {
          "internalType": "address",
          "name": "",
          "type": "address"
        },
        {
          "internalType": "bytes32",
          "name": "",
          "type": "bytes32"
        }
      ],
      "name": "accountBalances",
      "outputs": [
        {
          "internalType": "uint256",
          "name": "",
          "type": "uint256"
        }
      ],
      "stateMutability": "view",
      "type": "function"
    },
    {
      "inputs": [
        {
          "internalType": "uint256",
          "name": "courseId",
          "type": "uint256"
        },
        {
          "internalType": "uint256",
          "name": "challengeReward",
          "type": "uint256"
        }
      ],
      "name": "addChallenge",
      "outputs": [],
      "stateMutability": "nonpayable",
      "type": "function"
    },
    {
      "inputs": [
        {
          "internalType": "string",
          "name": "name",
          "type": "string"
        },
        {
          "internalType": "address",
          "name": "ownerAddress",
          "type": "address"
        },
        {
          "internalType": "uint256",
          "name": "stakeAmount",
          "type": "uint256"
        },
        {
          "internalType": "address",
          "name": "tokenAddress",
          "type": "address"
        }
      ],
      "name": "addCourse",
      "outputs": [],
      "stateMutability": "nonpayable",
      "type": "function"
    },
    {
      "inputs": [
        {
          "internalType": "address",
          "name": "studentAddress",
          "type": "address"
        },
        {
          "internalType": "uint256",
          "name": "courseId",
          "type": "uint256"
        }
      ],
      "name": "addStudents",
      "outputs": [],
      "stateMutability": "nonpayable",
      "type": "function"
    },
    {
      "inputs": [
        {
          "internalType": "uint256",
          "name": "",
          "type": "uint256"
        }
      ],
      "name": "allCourses",
      "outputs": [
        {
          "internalType": "string",
          "name": "name",
          "type": "string"
        },
        {
          "internalType": "bool",
          "name": "isActive",
          "type": "bool"
        },
        {
          "internalType": "address",
          "name": "courseOwner",
          "type": "address"
        },
        {
          "internalType": "uint256",
          "name": "totalStaked",
          "type": "uint256"
        },
        {
          "internalType": "address",
          "name": "stakedTokenAddress",
          "type": "address"
        },
        {
          "internalType": "uint256",
          "name": "studentId",
          "type": "uint256"
        },
        {
          "internalType": "uint256",
          "name": "courseId",
          "type": "uint256"
        }
      ],
      "stateMutability": "view",
      "type": "function"
    },
    {
      "inputs": [
        {
          "internalType": "uint256",
          "name": "",
          "type": "uint256"
        }
      ],
      "name": "challengeCount",
      "outputs": [
        {
          "internalType": "uint256",
          "name": "",
          "type": "uint256"
        }
      ],
      "stateMutability": "view",
      "type": "function"
    },
    {
      "inputs": [
        {
          "internalType": "uint256",
          "name": "",
          "type": "uint256"
        }
      ],
      "name": "courses",
      "outputs": [
        {
          "internalType": "string",
          "name": "name",
          "type": "string"
        },
        {
          "internalType": "bool",
          "name": "isActive",
          "type": "bool"
        },
        {
          "internalType": "address",
          "name": "courseOwner",
          "type": "address"
        },
        {
          "internalType": "uint256",
          "name": "totalStaked",
          "type": "uint256"
        },
        {
          "internalType": "address",
          "name": "stakedTokenAddress",
          "type": "address"
        },
        {
          "internalType": "uint256",
          "name": "studentId",
          "type": "uint256"
        },
        {
          "internalType": "uint256",
          "name": "courseId",
          "type": "uint256"
        }
      ],
      "stateMutability": "view",
      "type": "function"
    },
    {
      "inputs": [
        {
          "internalType": "uint256",
          "name": "amount",
          "type": "uint256"
        },
        {
          "internalType": "bytes32",
          "name": "symbol",
          "type": "bytes32"
        }
      ],
      "name": "depositTokens",
      "outputs": [],
      "stateMutability": "nonpayable",
      "type": "function"
    },
    {
      "inputs": [
        {
          "internalType": "uint256",
          "name": "courseId",
          "type": "uint256"
        },
        {
          "internalType": "uint256",
          "name": "challengeId",
          "type": "uint256"
        }
      ],
      "name": "getChallengeReward",
      "outputs": [
        {
          "internalType": "uint256",
          "name": "reward",
          "type": "uint256"
        }
      ],
      "stateMutability": "view",
      "type": "function"
    },
    {
      "inputs": [
        {
          "internalType": "uint256",
          "name": "courseId",
          "type": "uint256"
        },
        {
          "internalType": "uint256",
          "name": "challengeId",
          "type": "uint256"
        },
        {
          "internalType": "address",
          "name": "studentAddress",
          "type": "address"
        }
      ],
      "name": "getStudentReward",
      "outputs": [
        {
          "internalType": "uint256",
          "name": "reward",
          "type": "uint256"
        }
      ],
      "stateMutability": "view",
      "type": "function"
    },
    {
      "inputs": [],
      "name": "status",
      "outputs": [
        {
          "internalType": "enum Totem.Status",
          "name": "",
          "type": "uint8"
        }
      ],
      "stateMutability": "view",
      "type": "function"
    },
    {
      "inputs": [
        {
          "internalType": "string",
          "name": "answer",
          "type": "string"
        },
        {
          "internalType": "uint256",
          "name": "courseId",
          "type": "uint256"
        },
        {
          "internalType": "uint256",
          "name": "challengeId",
          "type": "uint256"
        }
      ],
      "name": "submitChallenge",
      "outputs": [],
      "stateMutability": "nonpayable",
      "type": "function"
    },
    {
      "inputs": [
        {
          "internalType": "uint256",
          "name": "challengeId",
          "type": "uint256"
        },
        {
          "internalType": "uint256",
          "name": "courseId",
          "type": "uint256"
        },
        {
          "internalType": "uint256",
          "name": "score",
          "type": "uint256"
        },
        {
          "internalType": "address",
          "name": "studentAddress",
          "type": "address"
        }
      ],
      "name": "validateSubmit",
      "outputs": [],
      "stateMutability": "nonpayable",
      "type": "function"
    },
    {
      "inputs": [
        {
          "internalType": "bytes32",
          "name": "symbol",
          "type": "bytes32"
        },
        {
          "internalType": "address",
          "name": "tokenAddress",
          "type": "address"
        }
      ],
      "name": "whitelistTokens",
      "outputs": [],
      "stateMutability": "nonpayable",
      "type": "function"
    },
    {
      "inputs": [
        {
          "internalType": "bytes32",
          "name": "",
          "type": "bytes32"
        }
      ],
      "name": "whitelistedTokens",
      "outputs": [
        {
          "internalType": "address",
          "name": "",
          "type": "address"
        }
      ],
      "stateMutability": "view",
      "type": "function"
    },
    {
      "inputs": [
        {
          "internalType": "uint256",
          "name": "amount",
          "type": "uint256"
        },
        {
          "internalType": "bytes32",
          "name": "symbol",
          "type": "bytes32"
        }
      ],
      "name": "withdrawTokens",
      "outputs": [],
      "stateMutability": "nonpayable",
      "type": "function"
    }
  ],
  "bytecode": "0x608060405234801561001057600080fd5b50600160008190555033600760016101000a81548173ffffffffffffffffffffffffffffffffffffffff021916908373ffffffffffffffffffffffffffffffffffffffff160217905550612588806100696000396000f3fe608060405234801561001057600080fd5b506004361061010b5760003560e01c806396f979d2116100a2578063cb88dc7911610071578063cb88dc79146102cc578063d15b223e14610302578063d7b011dc1461031e578063e64fe3661461033a578063f1c12be01461036a5761010b565b806396f979d21461022e5780639ce5db2614610264578063aa3d9a1514610280578063c49cf7f3146102b05761010b565b806335713e44116100de57806335713e44146101aa5780637f441f3f146101da57806384a70c72146101f65780638f97994b146102125761010b565b8063022e3d29146101105780631996afab1461012c5780631f4225871461015c578063200d2ed21461018c575b600080fd5b61012a600480360381019061012591906118a0565b610386565b005b6101466004803603810190610141919061193e565b610666565b60405161015391906119a0565b60405180910390f35b610176600480360381019061017191906119bb565b6106d9565b60405161018391906119a0565b60405180910390f35b6101946106f1565b6040516101a19190611a5f565b60405180910390f35b6101c460048036038101906101bf91906118a0565b610704565b6040516101d191906119a0565b60405180910390f35b6101f460048036038101906101ef91906118a0565b610739565b005b610210600480360381019061020b9190611a7a565b6108a5565b005b61022c60048036038101906102279190611af0565b6109fd565b005b610248600480360381019061024391906119bb565b610b55565b60405161025b9796959493929190611bf3565b60405180910390f35b61027e60048036038101906102799190611c69565b610c6c565b005b61029a60048036038101906102959190611cd0565b610f74565b6040516102a79190611cfd565b60405180910390f35b6102ca60048036038101906102c59190611e4d565b610fa7565b005b6102e660048036038101906102e191906119bb565b611208565b6040516102f99796959493929190611bf3565b60405180910390f35b61031c60048036038101906103179190611af0565b61132f565b005b61033860048036038101906103339190611ebc565b61145d565b005b610354600480360381019061034f9190611efc565b611543565b60405161036191906119a0565b60405180910390f35b610384600480360381019061037f9190611f3c565b611568565b005b6002600381111561039a576103996119e8565b5b60046000838152602001908152602001600020600501600084815260200190815260200160002060000160003373ffffffffffffffffffffffffffffffffffffffff1673ffffffffffffffffffffffffffffffffffffffff16815260200190815260200160002060009054906101000a900460ff166003811115610421576104206119e8565b5b1461042b57600080fd5b600360046000838152602001908152602001600020600501600084815260200190815260200160002060000160003373ffffffffffffffffffffffffffffffffffffffff1673ffffffffffffffffffffffffffffffffffffffff16815260200190815260200160002060006101000a81548160ff021916908360038111156104b6576104b56119e8565b5b021790555060046000600854815260200190815260200160002060030160009054906101000a900473ffffffffffffffffffffffffffffffffffffffff1673ffffffffffffffffffffffffffffffffffffffff1663a9059cbb3360046000858152602001908152602001600020600501600086815260200190815260200160002060010160003373ffffffffffffffffffffffffffffffffffffffff1673ffffffffffffffffffffffffffffffffffffffff168152602001908152602001600020546040518363ffffffff1660e01b8152600401610595929190611fbf565b602060405180830381600087803b1580156105af57600080fd5b505af11580156105c3573d6000803e3d6000fd5b505050506040513d601f19601f820116820180604052508101906105e79190612014565b503373ffffffffffffffffffffffffffffffffffffffff1681837fb94bf7f9302edf52a596286915a69b4b0685574cffdedd0712e3c62f2550f0ba6004600086815260200190815260200160002060050160008781526020019081526020016000206002015460405161065a91906119a0565b60405180910390a45050565b600060046000858152602001908152602001600020600501600084815260200190815260200160002060010160008373ffffffffffffffffffffffffffffffffffffffff1673ffffffffffffffffffffffffffffffffffffffff1681526020019081526020016000205490509392505050565b60016020528060005260406000206000915090505481565b600760009054906101000a900460ff1681565b600060046000848152602001908152602001600020600501600083815260200190815260200160002060020154905092915050565b3373ffffffffffffffffffffffffffffffffffffffff166004600084815260200190815260200160002060010160019054906101000a900473ffffffffffffffffffffffffffffffffffffffff1673ffffffffffffffffffffffffffffffffffffffff16146107dd576040517f08c379a00000000000000000000000000000000000000000000000000000000081526004016107d4906120b3565b60405180910390fd5b6001806000848152602001908152602001600020546107fc9190612102565b60016000848152602001908152602001600020819055508060046000848152602001908152602001600020600501600060016000868152602001908152602001600020548152602001908152602001600020600201819055508160016000848152602001908152602001600020547fa66162de8dd6d3138ebd5a7e3b16dd588d7c59eca2fd2af2f587900a5fa752ae8360405161089991906119a0565b60405180910390a35050565b3373ffffffffffffffffffffffffffffffffffffffff166004600083815260200190815260200160002060010160019054906101000a900473ffffffffffffffffffffffffffffffffffffffff1673ffffffffffffffffffffffffffffffffffffffff1614610949576040517f08c379a0000000000000000000000000000000000000000000000000000000008152600401610940906120b3565b60405180910390fd5b60016004600083815260200190815260200160002060040160008473ffffffffffffffffffffffffffffffffffffffff1673ffffffffffffffffffffffffffffffffffffffff16815260200190815260200160002060006101000a81548160ff0219169083151502179055508173ffffffffffffffffffffffffffffffffffffffff16817fe1cacc7bf04bbbc4acbefdd919648dda3da5378dfdd304a8bf8479ac92cb77e060405160405180910390a35050565b81600660003373ffffffffffffffffffffffffffffffffffffffff1673ffffffffffffffffffffffffffffffffffffffff1681526020019081526020016000206000838152602001908152602001600020541015610a90576040517f08c379a0000000000000000000000000000000000000000000000000000000008152600401610a87906121a4565b60405180910390fd5b6005600082815260200190815260200160002060009054906101000a900473ffffffffffffffffffffffffffffffffffffffff1673ffffffffffffffffffffffffffffffffffffffff1663a9059cbb33846040518363ffffffff1660e01b8152600401610afe929190611fbf565b602060405180830381600087803b158015610b1857600080fd5b505af1158015610b2c573d6000803e3d6000fd5b505050506040513d601f19601f82011682018060405250810190610b509190612014565b505050565b6004602052806000526040600020600091509050806000018054610b78906121f3565b80601f0160208091040260200160405190810160405280929190818152602001828054610ba4906121f3565b8015610bf15780601f10610bc657610100808354040283529160200191610bf1565b820191906000526020600020905b815481529060010190602001808311610bd457829003601f168201915b5050505050908060010160009054906101000a900460ff16908060010160019054906101000a900473ffffffffffffffffffffffffffffffffffffffff16908060020154908060030160009054906101000a900473ffffffffffffffffffffffffffffffffffffffff16908060060154908060070154905087565b3373ffffffffffffffffffffffffffffffffffffffff166004600085815260200190815260200160002060010160019054906101000a900473ffffffffffffffffffffffffffffffffffffffff1673ffffffffffffffffffffffffffffffffffffffff1614610d10576040517f08c379a0000000000000000000000000000000000000000000000000000000008152600401610d07906120b3565b60405180910390fd5b60016003811115610d2457610d236119e8565b5b60046000858152602001908152602001600020600501600086815260200190815260200160002060000160008373ffffffffffffffffffffffffffffffffffffffff1673ffffffffffffffffffffffffffffffffffffffff16815260200190815260200160002060009054906101000a900460ff166003811115610dab57610daa6119e8565b5b14610db557600080fd5b600260046000858152602001908152602001600020600501600086815260200190815260200160002060000160008373ffffffffffffffffffffffffffffffffffffffff1673ffffffffffffffffffffffffffffffffffffffff16815260200190815260200160002060006101000a81548160ff02191690836003811115610e4057610e3f6119e8565b5b021790555060646004600085815260200190815260200160002060050160008681526020019081526020016000206002015483610e7d9190612225565b610e8791906122ae565b60046000858152602001908152602001600020600501600086815260200190815260200160002060010160008373ffffffffffffffffffffffffffffffffffffffff1673ffffffffffffffffffffffffffffffffffffffff168152602001908152602001600020819055508073ffffffffffffffffffffffffffffffffffffffff1683857f08454f250bc1189f1470fbd6a791d9c796d075494bbce876046f1b682421c66e856004600089815260200190815260200160002060050160008a815260200190815260200160002060020154604051610f669291906122df565b60405180910390a450505050565b60056020528060005260406000206000915054906101000a900473ffffffffffffffffffffffffffffffffffffffff1681565b60016004600084815260200190815260200160002060040160003373ffffffffffffffffffffffffffffffffffffffff1673ffffffffffffffffffffffffffffffffffffffff16815260200190815260200160002060006101000a81548160ff0219169083151502179055611051576040517f08c379a00000000000000000000000000000000000000000000000000000000081526004016110489061237a565b60405180910390fd5b600060046000848152602001908152602001600020600501600083815260200190815260200160002060020154116110be576040517f08c379a00000000000000000000000000000000000000000000000000000000081526004016110b5906123e6565b60405180910390fd5b600160046000848152602001908152602001600020600501600083815260200190815260200160002060000160003373ffffffffffffffffffffffffffffffffffffffff1673ffffffffffffffffffffffffffffffffffffffff16815260200190815260200160002060006101000a81548160ff02191690836003811115611149576111486119e8565b5b02179055508260046000848152602001908152602001600020600501600083815260200190815260200160002060040160003373ffffffffffffffffffffffffffffffffffffffff1673ffffffffffffffffffffffffffffffffffffffff16815260200190815260200160002090805190602001906111c99291906117b3565b5080827fdf3e271e9770ab024e211171a0f36fdde563fadc152c7f62854988d8a18e3a50856040516111fb9190612406565b60405180910390a3505050565b600a818154811061121857600080fd5b906000526020600020906008020160009150905080600001805461123b906121f3565b80601f0160208091040260200160405190810160405280929190818152602001828054611267906121f3565b80156112b45780601f10611289576101008083540402835291602001916112b4565b820191906000526020600020905b81548152906001019060200180831161129757829003601f168201915b5050505050908060010160009054906101000a900460ff16908060010160019054906101000a900473ffffffffffffffffffffffffffffffffffffffff16908060020154908060030160009054906101000a900473ffffffffffffffffffffffffffffffffffffffff16908060060154908060070154905087565b81600660003373ffffffffffffffffffffffffffffffffffffffff1673ffffffffffffffffffffffffffffffffffffffff1681526020019081526020016000206000838152602001908152602001600020600082825461138f9190612102565b925050819055506005600082815260200190815260200160002060009054906101000a900473ffffffffffffffffffffffffffffffffffffffff1673ffffffffffffffffffffffffffffffffffffffff166323b872dd3330856040518463ffffffff1660e01b815260040161140693929190612428565b602060405180830381600087803b15801561142057600080fd5b505af1158015611434573d6000803e3d6000fd5b505050506040513d601f19601f820116820180604052508101906114589190612014565b505050565b600760019054906101000a900473ffffffffffffffffffffffffffffffffffffffff1673ffffffffffffffffffffffffffffffffffffffff163373ffffffffffffffffffffffffffffffffffffffff16146114ed576040517f08c379a00000000000000000000000000000000000000000000000000000000081526004016114e4906124ab565b60405180910390fd5b806005600084815260200190815260200160002060006101000a81548173ffffffffffffffffffffffffffffffffffffffff021916908373ffffffffffffffffffffffffffffffffffffffff1602179055505050565b6006602052816000526040600020602052806000526040600020600091509150505481565b8073ffffffffffffffffffffffffffffffffffffffff166323b872dd3330856040518463ffffffff1660e01b81526004016115a593929190612428565b602060405180830381600087803b1580156115bf57600080fd5b505af11580156115d3573d6000803e3d6000fd5b505050506040513d601f19601f820116820180604052508101906115f79190612014565b506008600081548092919061160b906124cb565b919050555083600460006008548152602001908152602001600020600001908051906020019061163c9291906117b3565b50600160046000600854815260200190815260200160002060010160006101000a81548160ff0219169083151502179055508260046000600854815260200190815260200160002060010160016101000a81548173ffffffffffffffffffffffffffffffffffffffff021916908373ffffffffffffffffffffffffffffffffffffffff16021790555081600460006008548152602001908152602001600020600201819055508060046000600854815260200190815260200160002060030160006101000a81548173ffffffffffffffffffffffffffffffffffffffff021916908373ffffffffffffffffffffffffffffffffffffffff160217905550600854600460006008548152602001908152602001600020600701819055506008548373ffffffffffffffffffffffffffffffffffffffff167f81492c82ff72a147087ca6d664f3578619a358629830f78af1a7decebe13b5438685856040516117a593929190612514565b60405180910390a350505050565b8280546117bf906121f3565b90600052602060002090601f0160209004810192826117e15760008555611828565b82601f106117fa57805160ff1916838001178555611828565b82800160010185558215611828579182015b8281111561182757825182559160200191906001019061180c565b5b5090506118359190611839565b5090565b5b8082111561185257600081600090555060010161183a565b5090565b6000604051905090565b600080fd5b600080fd5b6000819050919050565b61187d8161186a565b811461188857600080fd5b50565b60008135905061189a81611874565b92915050565b600080604083850312156118b7576118b6611860565b5b60006118c58582860161188b565b92505060206118d68582860161188b565b9150509250929050565b600073ffffffffffffffffffffffffffffffffffffffff82169050919050565b600061190b826118e0565b9050919050565b61191b81611900565b811461192657600080fd5b50565b60008135905061193881611912565b92915050565b60008060006060848603121561195757611956611860565b5b60006119658682870161188b565b93505060206119768682870161188b565b925050604061198786828701611929565b9150509250925092565b61199a8161186a565b82525050565b60006020820190506119b56000830184611991565b92915050565b6000602082840312156119d1576119d0611860565b5b60006119df8482850161188b565b91505092915050565b7f4e487b7100000000000000000000000000000000000000000000000000000000600052602160045260246000fd5b60048110611a2857611a276119e8565b5b50565b6000819050611a3982611a17565b919050565b6000611a4982611a2b565b9050919050565b611a5981611a3e565b82525050565b6000602082019050611a746000830184611a50565b92915050565b60008060408385031215611a9157611a90611860565b5b6000611a9f85828601611929565b9250506020611ab08582860161188b565b9150509250929050565b6000819050919050565b611acd81611aba565b8114611ad857600080fd5b50565b600081359050611aea81611ac4565b92915050565b60008060408385031215611b0757611b06611860565b5b6000611b158582860161188b565b9250506020611b2685828601611adb565b9150509250929050565b600081519050919050565b600082825260208201905092915050565b60005b83811015611b6a578082015181840152602081019050611b4f565b83811115611b79576000848401525b50505050565b6000601f19601f8301169050919050565b6000611b9b82611b30565b611ba58185611b3b565b9350611bb5818560208601611b4c565b611bbe81611b7f565b840191505092915050565b60008115159050919050565b611bde81611bc9565b82525050565b611bed81611900565b82525050565b600060e0820190508181036000830152611c0d818a611b90565b9050611c1c6020830189611bd5565b611c296040830188611be4565b611c366060830187611991565b611c436080830186611be4565b611c5060a0830185611991565b611c5d60c0830184611991565b98975050505050505050565b60008060008060808587031215611c8357611c82611860565b5b6000611c918782880161188b565b9450506020611ca28782880161188b565b9350506040611cb38782880161188b565b9250506060611cc487828801611929565b91505092959194509250565b600060208284031215611ce657611ce5611860565b5b6000611cf484828501611adb565b91505092915050565b6000602082019050611d126000830184611be4565b92915050565b600080fd5b600080fd5b7f4e487b7100000000000000000000000000000000000000000000000000000000600052604160045260246000fd5b611d5a82611b7f565b810181811067ffffffffffffffff82111715611d7957611d78611d22565b5b80604052505050565b6000611d8c611856565b9050611d988282611d51565b919050565b600067ffffffffffffffff821115611db857611db7611d22565b5b611dc182611b7f565b9050602081019050919050565b82818337600083830152505050565b6000611df0611deb84611d9d565b611d82565b905082815260208101848484011115611e0c57611e0b611d1d565b5b611e17848285611dce565b509392505050565b600082601f830112611e3457611e33611d18565b5b8135611e44848260208601611ddd565b91505092915050565b600080600060608486031215611e6657611e65611860565b5b600084013567ffffffffffffffff811115611e8457611e83611865565b5b611e9086828701611e1f565b9350506020611ea18682870161188b565b9250506040611eb28682870161188b565b9150509250925092565b60008060408385031215611ed357611ed2611860565b5b6000611ee185828601611adb565b9250506020611ef285828601611929565b9150509250929050565b60008060408385031215611f1357611f12611860565b5b6000611f2185828601611929565b9250506020611f3285828601611adb565b9150509250929050565b60008060008060808587031215611f5657611f55611860565b5b600085013567ffffffffffffffff811115611f7457611f73611865565b5b611f8087828801611e1f565b9450506020611f9187828801611929565b9350506040611fa28782880161188b565b9250506060611fb387828801611929565b91505092959194509250565b6000604082019050611fd46000830185611be4565b611fe16020830184611991565b9392505050565b611ff181611bc9565b8114611ffc57600080fd5b50565b60008151905061200e81611fe8565b92915050565b60006020828403121561202a57612029611860565b5b600061203884828501611fff565b91505092915050565b7f596f75277265206e6f74207468652070726f666573736f72206f66207468697360008201527f20436f7572736500000000000000000000000000000000000000000000000000602082015250565b600061209d602783611b3b565b91506120a882612041565b604082019050919050565b600060208201905081810360008301526120cc81612090565b9050919050565b7f4e487b7100000000000000000000000000000000000000000000000000000000600052601160045260246000fd5b600061210d8261186a565b91506121188361186a565b9250827fffffffffffffffffffffffffffffffffffffffffffffffffffffffffffffffff0382111561214d5761214c6120d3565b5b828201905092915050565b7f496e73756666696369656e742066756e64730000000000000000000000000000600082015250565b600061218e601283611b3b565b915061219982612158565b602082019050919050565b600060208201905081810360008301526121bd81612181565b9050919050565b7f4e487b7100000000000000000000000000000000000000000000000000000000600052602260045260246000fd5b6000600282049050600182168061220b57607f821691505b6020821081141561221f5761221e6121c4565b5b50919050565b60006122308261186a565b915061223b8361186a565b9250817fffffffffffffffffffffffffffffffffffffffffffffffffffffffffffffffff0483118215151615612274576122736120d3565b5b828202905092915050565b7f4e487b7100000000000000000000000000000000000000000000000000000000600052601260045260246000fd5b60006122b98261186a565b91506122c48361186a565b9250826122d4576122d361227f565b5b828204905092915050565b60006040820190506122f46000830185611991565b6123016020830184611991565b9392505050565b7f41646472657373206e6f7420612073747564656e74206f66207468697320436f60008201527f7572736500000000000000000000000000000000000000000000000000000000602082015250565b6000612364602483611b3b565b915061236f82612308565b604082019050919050565b6000602082019050818103600083015261239381612357565b9050919050565b7f4368616c6c656e676520646f65736e7420457869737400000000000000000000600082015250565b60006123d0601683611b3b565b91506123db8261239a565b602082019050919050565b600060208201905081810360008301526123ff816123c3565b9050919050565b600060208201905081810360008301526124208184611b90565b905092915050565b600060608201905061243d6000830186611be4565b61244a6020830185611be4565b6124576040830184611991565b949350505050565b7f546869732066756e6374696f6e206973206e6f74207075626c69630000000000600082015250565b6000612495601b83611b3b565b91506124a08261245f565b602082019050919050565b600060208201905081810360008301526124c481612488565b9050919050565b60006124d68261186a565b91507fffffffffffffffffffffffffffffffffffffffffffffffffffffffffffffffff821415612509576125086120d3565b5b600182019050919050565b6000606082019050818103600083015261252e8186611b90565b905061253d6020830185611991565b61254a6040830184611be4565b94935050505056fea26469706673582212206e73eb0979c155ed0d460892ab0ca8c348b2f575197d5b5d42740e397eac3fd764736f6c63430008090033",
  "linkReferences": {},
  "deployedLinkReferences": {}
}